:100000000C945D000C9485000C9485000C94850084
:100010000C9485000C9485000C9485000C9485004C
:100020000C9485000C9485000C9485000C9485003C
:100030000C9485000C94D8020C9485000C948500D7
:100040000C9436020C9485000C94A6020C94800249
:100050000C9485000C9485000C9485000C9485000C
:100060000C9485000C94850000000008000201003B
:100070000003040700000000000000000000000072
:10008000250028002B0000000000240027002A0083
:10009000040404040404040402020202020203032E
:1000A0000303030301020408102040800102040836
:1000B0001020010204081020C80411241FBECFEF35
:1000C000D8E0DEBFCDBF11E0A0E0B1E0E2EDFDE0A1
:1000D00002C005900D92A233B107D9F721E0A2E347
:1000E000B1E001C01D92A93DB207E1F710E0CDE5F6
:1000F000D0E004C02197FE010E94E106CC35D10773
:10010000C9F70E94FF020C94E7060C940000AF921E
:10011000BF92CF92DF92EF92FF920F931F93CF93F4
:10012000DF936C017B018B01040F151FEB015E0156
:10013000AE18BF08C017D10759F06991D601ED91EB
:10014000FC910190F081E02DC6010995892B79F78A
:10015000C501DF91CF911F910F91FF90EF90DF903C
:10016000CF90BF90AF900895FC01538D448D252F03
:1001700030E0842F90E0821B930B541710F0CF9641
:10018000089501970895FC01918D828D981761F073
:10019000A28DAE0FBF2FB11D5D968C91928D9F5F8A
:1001A0009F73928F90E008958FEF9FEF0895FC0169
:1001B000918D828D981731F0828DE80FF11D858D1C
:1001C00090E008958FEF9FEF0895FC01918D228DAF
:1001D000892F90E0805C9F4F821B91098F73992734
:1001E00008958CE391E00E94E50021E0892B09F459
:1001F00020E0822F089580E090E0892B29F00E9472
:10020000F10081110C9400000895FC01A48DA80F49
:10021000B92FB11DA35ABF4F2C91848D90E0019648
:100220008F739927848FA689B7892C93A089B18968
:100230008C91837080648C93938D848D981306C009
:100240000288F389E02D80818F7D80830895EF926D
:10025000FF920F931F93CF93DF93EC0181E0888F80
:100260009B8D8C8D98131AC0E889F989808185FF50
:1002700015C09FB7F894EE89FF896083E889F989F2
:1002800080818370806480839FBF81E090E0DF91F4
:10029000CF911F910F91FF90EF900895F62E0B8D47
:1002A00010E00F5F1F4F0F731127E02E8C8D8E1102
:1002B0000CC00FB607FCFACFE889F989808185FF69
:1002C000F5CFCE010E940501F1CFEB8DEC0FFD2F94
:1002D000F11DE35AFF4FF0829FB7F8940B8FEA8924
:1002E000FB8980818062CFCFCF93DF93EC01888D33
:1002F0008823B9F0AA89BB89E889F9898C9185FDA1
:1003000003C0808186FD0DC00FB607FCF7CF8C912E
:1003100085FFF2CF808185FFEDCFCE010E940501E0
:10032000E9CFDF91CF9108950895E5E7F0E094914A
:10033000E1EBF0E08491EDE9F0E0E491EE23D9F017
:1003400020913201992339F0933031F1D8F4913072
:1003500049F1923059F1F0E0EE0FFF1FE458FF4FE2
:10036000A591B4919FB7F894EC9121112CC0809580
:100370008E238C939FBF8091320191E089278093D7
:10038000320108959730A9F09830C9F0943019F7E8
:10039000909180009F7D03C0909180009F77909303
:1003A0008000D9CF94B59F7794BDD5CF94B59F7D6C
:1003B000FBCF9091B0009F779093B000CCCF9091FD
:1003C000B0009F7DF9CF8E2BD4CFFC01019000208F
:1003D000E9F73197AF01481B590BBC018CE391E061
:1003E0000C9487008F929F92AF92BF920F931F93AE
:1003F000CF93DF93CDB7DEB7A1970FB6F894DEBFEA
:100400000FBECDBF19A2423008F44AE08E010F5D45
:100410001F4F842E912CB12CA12CA50194010E9478
:10042000BF06E62FB901CA01EA30F4F4E05DD80155
:10043000EE938D01232B242B252B79F790E080E080
:10044000109719F0CD010E94E501A1960FB6F8941E
:10045000DEBF0FBECDBFDF91CF911F910F91BF9037
:10046000AF909F908F900895E95CE1CF1F920F921B
:100470000FB60F9211242F933F938F939F93AF93B7
:10048000BF938091380190913901A0913A01B091C8
:100490003B013091370123E0230F2D3758F50196AA
:1004A000A11DB11D2093370180933801909339012C
:1004B000A0933A01B0933B018091330190913401B4
:1004C000A0913501B09136010196A11DB11D809317
:1004D000330190933401A0933501B0933601BF915D
:1004E000AF919F918F913F912F910F900FBE0F90E1
:1004F0001F90189526E8230F0296A11DB11DD2CF9B
:100500001F920F920FB60F9211242F933F934F9388
:100510005F936F937F938F939F93AF93BF93EF936B
:10052000FF938CE391E00E940501FF91EF91BF9151
:10053000AF919F918F917F916F915F914F913F917B
:100540002F910F900FBE0F901F9018951F920F9232
:100550000FB60F9211242F938F939F93EF93FF93D6
:10056000E0914C01F0914D018081E0915201F091B8
:10057000530182FD1BC09081809155018F5F8F7365
:1005800020915601821741F0E0915501F0E0E45CC2
:10059000FE4F958F80935501FF91EF919F918F9121
:1005A0002F910F900FBE0F901F9018958081F4CF60
:1005B0001F920F920FB60F9211242F933F934F93D8
:1005C0005F936F937F938F939F93AF93BF93EF93BB
:1005D000FF93E0910001F09101010995FF91EF91E6
:1005E000BF91AF919F918F917F916F915F914F914B
:1005F0003F912F910F900FBE0F901F9018957894F8
:1006000084B5826084BD84B5816084BD85B5826017
:1006100085BD85B5816085BD80916E0081608093C8
:100620006E00109281008091810082608093810031
:100630008091810081608093810080918000816041
:10064000809380008091B10084608093B10080919C
:10065000B00081608093B00080917A0084608093C4
:100660007A0080917A00826080937A0080917A008B
:10067000816080937A0080917A00806880937A000C
:100680001092C100E2EBF0E02491EEE9F0E08491F9
:100690008823C1F090E0880F991FFC01EA57FF4FB3
:1006A000C591D491FC01E458FF4FA591B4919FB737
:1006B000F8948881E22FE0958E2388838C91E8233B
:1006C000EC939FBFE1EBF0E02491EDE9F0E0849141
:1006D000882399F090E0880F991FFC01EA57FF4F9B
:1006E000A591B491FC01E458FF4F859194918FB787
:1006F000F894EC91E22BEC938FBF80E18093810022
:100700001092800080E49FE19093870080938600A0
:1007100081E18093810082E19AE790938700809342
:10072000860083E18093810085E991E09093010147
:100730008093000181E080936F00E0914C01F09183
:100740004D0182E08083E0914801F09149011082DF
:10075000E0914A01F0914B018FEC8083109254019B
:10076000E0915001F091510186E08083E0914E01CB
:10077000F0914F01808180618083E0914E01F09182
:100780004F01808188608083E0914E01F0914F019C
:10079000808180688083E0914E01F0914F018081DB
:1007A0008F7D808304E214EFC2E1DAE780E0282E37
:1007B00080E0382E80E480937C0080917A00806411
:1007C00080937A0080917A0086FDFCCF809178003A
:1007D00060917900762F682F072E000C880B990BFB
:1007E0000E94980520E030E040EA5BE30E944D065D
:1007F00020E030E04AE754E40E944D066B017C01A2
:1008000084E191E00E94E501A7019601C701B601CC
:100810000E94BA06882329F183E291E00E94E50153
:100820008FE291E00E94E50120E030E040EF51E4EA
:10083000C701B6010E94620587FFA5C0D09387005B
:10084000C093860083E1809381002114310409F470
:10085000B1CF0E94F100882309F4ACCF0E940000C0
:10086000A9CF46015701E894B7F82FEF3FEF4FE7C4
:100870005FE7C501B4010E94BA0681110DC02FEFD8
:100880003FEF4FE75FE7C501B4010E94620518160C
:100890001CF487E291E0C2CF2FEF3FEF4FE75FE418
:1008A000C701B6010E94480618161CF48BE291E0BD
:1008B000B5CF2FEF3FEF4FE75FECC701B6010E94C6
:1008C000620587FDF3CF20E030E0A901C701B60142
:1008D0000E94620587FF54C06DE28CE391E00E94A4
:1008E0002701C701B60190582AE037ED43EA5BE3E0
:1008F0000E94F6042B013C010E9467054B015C013C
:100900000E9496059B01AC01C301B2010E94F5044F
:100910002B013C014AE0C501B4010E94F2016EE2E4
:100920008CE391E00E94270120E030E040E251E4B6
:10093000C301B2010E944D062B013C010E946705D4
:100940004B01B12CA12C4AE0C501B4010E94F20177
:10095000C501B4010E9496059B01AC01C301B2011F
:100960000E94F50420E030E040E251E40E944D0690
:100970000E94670590E080E04AE00E94F20150CFBB
:10098000C701B601B1CF10938700009386005ACFFC
:10099000ECE3F1E01382128288EE93E0A0E0B0E095
:1009A00084839583A683B78386E091E091838083D7
:1009B00085EC90E09587848784EC90E09787868724
:1009C00080EC90E0918B808B81EC90E0938B828B1C
:1009D00082EC90E0958B848B86EC90E0978B868BF5
:1009E000118E128E138E148E08955058BB27AA278D
:1009F0000E940D050C940E060E94000638F00E941D
:100A0000070620F039F49F3F19F426F40C94FD05F5
:100A10000EF4E095E7FB0C94F705E92F0E941F0602
:100A200058F3BA17620773078407950720F079F423
:100A3000A6F50C9441060EF4E0950B2EBA2FA02DCE
:100A40000B01B90190010C01CA01A0011124FF277B
:100A5000591B99F0593F50F4503E68F11A16F04076
:100A6000A22F232F342F4427585FF3CF4695379575
:100A70002795A795F0405395C9F77EF41F16BA0B3A
:100A8000620B730B840BBAF09150A1F0FF0FBB1FE8
:100A9000661F771F881FC2F70EC0BA0F621F731F31
:100AA000841F48F4879577956795B795F7959E3F8E
:100AB00008F0B0CF9395880F08F09927EE0F97951F
:100AC000879508950E94D30508F481E008950E9457
:100AD000270688F09F5798F0B92F9927B751B0F0A3
:100AE000E1F0660F771F881F991F1AF0BA95C9F7B2
:100AF00014C0B13091F00E944106B1E008950C9409
:100B00004106672F782F8827B85F39F0B93FCCF3BB
:100B1000869577956795B395D9F73EF4909580952E
:100B2000709561957F4F8F4F9F4F0895E89409C04E
:100B300097FB3EF490958095709561957F4F8F4F10
:100B40009F4F9923A9F0F92F96E9BB279395F69526
:100B5000879577956795B795F111F8CFFAF4BB0FA4
:100B600011F460FF1BC06F5F7F4F8F4F9F4F16C008
:100B7000882311F096E911C0772321F09EE8872F92
:100B8000762F05C0662371F096E8862F70E060E04E
:100B90002AF09A95660F771F881FDAF7880F9695C7
:100BA000879597F90895990F0008550FAA0BE0E86B
:100BB000FEEF16161706E807F907C0F0121613061F
:100BC000E407F50798F0621B730B840B950B39F45F
:100BD0000A2661F0232B242B252B21F408950A26C5
:100BE00009F4A140A6958FEF811D811D089597F905
:100BF0009F6780E870E060E008959FEF80EC0895C3
:100C000000240A94161617061806090608950024EB
:100C10000A9412161306140605060895092E039465
:100C2000000C11F4882352F0BB0F40F4BF2B11F4D9
:100C300060FF04C06F5F7F4F8F4F9F4F089557FD38
:100C40009058440F551F59F05F3F71F04795880F3A
:100C500097FB991F61F09F3F79F0879508951216D1
:100C600013061406551FF2CF4695F1DF08C016167D
:100C700017061806991FF1CF86957105610508942E
:100C80000895E894BB2766277727CB0197F9089545
:100C90000E94D30508F48FEF08950E9460060C941B
:100CA0000E060E94000638F00E94070620F09523E9
:100CB00011F00C94F7050C94FD0511240C944206D8
:100CC0000E941F0670F3959FC1F3950F50E0551FCA
:100CD000629FF001729FBB27F00DB11D639FAA2791
:100CE000F00DB11DAA1F649F6627B00DA11D661FE0
:100CF000829F2227B00DA11D621F739FB00DA11D01
:100D0000621F839FA00D611D221F749F3327A00DBA
:100D1000611D231F849F600D211D822F762F6A2F56
:100D200011249F5750409AF0F1F088234AF0EE0FBB
:100D3000FF1FBB1F661F771F881F91505040A9F7E8
:100D40009E3F510580F00C94F7050C9442065F3FDE
:100D5000E4F3983ED4F3869577956795B795F79524
:100D6000E7959F5FC1F7FE2B880F911D969587959C
:100D700097F908950E94D305880B990B0895A1E275
:100D80001A2EAA1BBB1BFD010DC0AA1FBB1FEE1F05
:100D9000FF1FA217B307E407F50720F0A21BB30B50
:100DA000E40BF50B661F771F881F991F1A9469F7CC
:100DB00060957095809590959B01AC01BD01CF0128
:100DC0000895EE0FFF1F0590F491E02D0994F8941B
:020DD000FFCF53
:100DD20094010000000027018700B4007401E500BF
:100DE200C300D700496E20446567726565204320C1
:100DF2003D09006E616E00696E66006F7666000ADC
:020E02000000EE
:00000001FF
